:020000040800F2
:100000000050002021280008F9260008FF260008DB
:10001000052700080B270008112700080000000032
:10002000000000000000000000000000172700088A
:1000300023270008000000002F2700083B270008A6
:10004000692800086928000869280008692800084C
:10005000692800086928000869280008692800083C
:10006000692800086928000869280008492700084D
:100070006928000869280008692800085D27000829
:10008000692800086928000869280008692800080C
:1000900069280008692800086928000869280008FC
:1000A00069280008692800086928000869280008EC
:1000B00071270008692800086928000869280008D5
:1000C00069280008692800086928000869280008CC
:1000D00069280008852700086928000869280008A1
:1000E0009927000869280008692800080000000016
:1000F0000000000000000000000000000000000000
:0C01000000000000000000005FF808F1A3
:10010C0010B5054C237833B9044B13B10448AFF345
:10011C0000800123237010BD780000200000000037
:10012C00686A000808B5034B1BB103490348AFF3D9
:10013C00008008BD000000007C000020686A0008F8
:10014C00034613F8012B002AFBD1181A013870470B
:10015C004FF0FF0C1CEAD0521EBF1CEAD15392EA9E
:10016C000C0F93EA0C0F6FD01A4480EA010C40027A
:10017C0018BF5FEA41211ED04FF0006343EA5010D4
:10018C0043EA5111A0FB01310CF00040B1F5000F16
:10019C003EBF490041EAD3715B0040EA010062F1C5
:1001AC007F02FD2A1DD8B3F1004F40EBC25008BFAF
:1001BC0020F00100704790F0000F0CF0004C08BFCD
:1001CC0049024CEA502040EA51207F3AC2BFD2F19A
:1001DC00FF0340EAC250704740F400004FF00003A8
:1001EC00013A5DDC12F1190FDCBF00F000407047E2
:1001FC00C2F10002410021FA02F1C2F1200200FA20
:10020C0002FC5FEA310040F1000053EA4C0308BFE6
:10021C0020EADC70704792F0000F00F0004C02BF37
:10022C00400010F4000F013AF9D040EA0C0093F0B2
:10023C00000F01F0004C02BF490011F4000F013B0C
:10024C00F9D041EA0C018FE70CEAD15392EA0C0F7A
:10025C0018BF93EA0C0F0AD030F0004C18BF31F0E5
:10026C00004CD8D180EA010000F00040704790F0BB
:10027C00000F17BF90F0004F084691F0000F91F05F
:10028C00004F14D092EA0C0F01D142020FD193EA25
:10029C000C0F03D14B0218BF084608D180EA0100AD
:1002AC0000F0004040F0FE4040F40000704740F089
:1002BC00FE4040F44000704781F0004102E000BF76
:1002CC0083F0004330B54FEA41044FEA430594EA0A
:1002DC00050F08BF90EA020F1FBF54EA000C55EA45
:1002EC00020C7FEA645C7FEA655C00F0E2804FEA16
:1002FC005454D4EB5555B8BF6D420CDD2C4480EAF8
:10030C00020281EA030382EA000083EA010180EA27
:10031C00020281EA0303362D88BF30BD11F0004F75
:10032C004FEA01314FF4801C4CEA113102D04042AB
:10033C0061EB410113F0004F4FEA03334CEA1333E6
:10034C0002D0524263EB430394EA050F00F0A780FE
:10035C00A4F10104D5F1200E0DDB02FA0EFC22FAF9
:10036C0005F2801841F1000103FA0EF2801843FAED
:10037C0005F359410EE0A5F120050EF1200E012ADE
:10038C0003FA0EFC28BF4CF0020C43FA05F3C0181C
:10039C0051EBE37101F0004507D54FF0000EDCF195
:1003AC00000C7EEB00006EEB0101B1F5801F1BD33E
:1003BC00B1F5001F0CD349085FEA30004FEA3C0C42
:1003CC0004F101044FEA445212F5800F80F09A8038
:1003DC00BCF1004F08BF5FEA500C50F1000041EB3C
:1003EC00045141EA050130BD5FEA4C0C404141EB40
:1003FC000101013C28BFB1F5801FE9D291F0000F3B
:10040C0004BF01460020B1FA81F308BF2033A3F1E9
:10041C000B03B3F120020CDA0C3208DD02F1140CE0
:10042C00C2F10C0201FA0CF021FA02F10CE002F11B
:10043C001402D8BFC2F1200C01FA02F120FA0CFC14
:10044C00DCBF41EA0C019040E41AA2BF01EB04515D
:10045C00294330BD6FEA04041F3C1CDA0C340EDC5B
:10046C0004F11404C4F1200220FA04F001FA02F39E
:10047C0040EA030021FA04F345EA030130BDC4F15C
:10048C000C04C4F1200220FA02F001FA04F340EA51
:10049C000300294630BD21FA04F0294630BD94F002
:1004AC00000F83F4801306BF81F480110134013DE9
:1004BC004EE77FEA645C18BF7FEA655C29D094EA5A
:1004CC00050F08BF90EA020F05D054EA000C04BFD8
:1004DC001946104630BD91EA030F1EBF00210020C3
:1004EC0030BD5FEA545C05D14000494128BF41F062
:1004FC00004130BD14F580043CBF01F5801130BDC6
:10050C0001F0004545F0FE4141F470014FF0000050
:10051C0030BD7FEA645C1ABF194610467FEA655C01
:10052C001CBF0B46024650EA013406BF52EA0335A3
:10053C0091EA030F41F4002130BD00BF90F0000F91
:10054C0004BF0021704730B54FF4806404F13204CD
:10055C004FF000054FF0000150E700BF90F0000F86
:10056C0004BF0021704730B54FF4806404F13204AD
:10057C0010F0004548BF40424FF000013EE700BF7D
:10058C0042004FEAE2014FEA31014FEA02701FBF0D
:10059C0012F07F4393F07F4F81F06051704732F03F
:1005AC007F4208BF704793F07F4F04BF41F4002196
:1005BC00704730B54FF4607401F0004521F00041F4
:1005CC001CE700BF50EA010208BF704730B54FF07E
:1005DC0000050AE050EA010208BF704730B511F07F
:1005EC00004502D5404261EB41014FF4806404F1B7
:1005FC0032045FEA915C3FF4D8AE4FF003025FEA3D
:10060C00DC0C18BF03325FEADC0C18BF033202EBC0
:10061C00DC02C2F1200300FA03FC20FA02F001FA1A
:10062C0003FE40EA0E0021FA02F11444BDE600BFBD
:10063C0070B54FF0FF0C4CF4E06C1CEA11541DBF6C
:10064C001CEA135594EA0C0F95EA0C0F00F0DEF837
:10065C002C4481EA030621EA4C5123EA4C5350EA1C
:10066C00013518BF52EA033541F4801143F480136D
:10067C0038D0A0FB02CE4FF00005E1FB02E506F0FE
:10068C000042E0FB03E54FF00006E1FB03569CF053
:10069C00000F18BF4EF0010EA4F1FF04B6F5007F59
:1006AC0064F5407404D25FEA4E0E6D4146EB0606CB
:1006BC0042EAC62141EA55514FEAC52040EA5E5054
:1006CC004FEACE2EB4F1FD0C88BFBCF5E06F1ED8FE
:1006DC00BEF1004F08BF5FEA500E50F1000041EB35
:1006EC00045170BD06F0004646EA010140EA0200E2
:1006FC0081EA0301B4EB5C04C2BFD4EB0C0541EA04
:10070C00045170BD41F480114FF0000E013C00F318
:10071C00AB8014F1360FDEBF002001F0004170BD3C
:10072C00C4F10004203C35DA0C341BDC04F1140455
:10073C00C4F1200500FA05F320FA04F001FA05F2E1
:10074C0040EA020001F0004221F0004110EBD370AE
:10075C0021FA04F642EB06015EEA430E08BF20EADA
:10076C00D37070BDC4F10C04C4F1200500FA04F37D
:10077C0020FA05F001FA04F240EA020001F000410F
:10078C0010EBD37041F100015EEA430E08BF20EA82
:10079C00D37070BDC4F1200500FA05F24EEA020ECA
:1007AC0020FA04F301FA05F243EA020321FA04F0F9
:1007BC0001F0004121FA04F220EA020000EBD370B0
:1007CC005EEA430E08BF20EAD37070BD94F0000FB0
:1007DC000FD101F00046400041EB010111F4801FE4
:1007EC0008BF013CF7D041EA060195F0000F18BF95
:1007FC00704703F00046520043EB030313F4801FD1
:10080C0008BF013DF7D043EA0603704794EA0C0F8A
:10081C000CEA135518BF95EA0C0F0CD050EA4106A0
:10082C0018BF52EA4306D1D181EA030101F000411D
:10083C004FF0000070BD50EA410606BF1046194645
:10084C0052EA430619D094EA0C0F02D150EA013651
:10085C0013D195EA0C0F05D152EA03361CBF104692
:10086C0019460AD181EA030101F0004141F0FE4131
:10087C0041F470014FF0000070BD41F0FE4141F4B5
:10088C00780170BD70B54FF0FF0C4CF4E06C1CEAB5
:10089C0011541DBF1CEA135594EA0C0F95EA0C0F6A
:1008AC0000F0A7F8A4EB050481EA030E52EA033525
:1008BC004FEA013100F088804FEA03334FF0805546
:1008CC0045EA131343EA12634FEA022245EA111573
:1008DC0045EA10654FEA00260EF000419D4208BF24
:1008EC00964244F1FD0404F5407402D25B084FEAD1
:1008FC003202B61A65EB03055B084FEA32024FF47D
:10090C0080104FF4002CB6EB020E75EB030E22BFD9
:10091C00B61A754640EA0C005B084FEA3202B6EB99
:10092C00020E75EB030E22BFB61A754640EA5C0048
:10093C005B084FEA3202B6EB020E75EB030E22BFD8
:10094C00B61A754640EA9C005B084FEA3202B6EBD9
:10095C00020E75EB030E22BFB61A754640EADC0098
:10096C0055EA060E18D04FEA051545EA16754FEAFA
:10097C0006164FEAC30343EA52734FEAC2025FEA18
:10098C001C1CC0D111F4801F0BD141EA00014FF0A7
:10099C0000004FF0004CB6E711F4801F04BF014378
:1009AC000020B4F1FD0C88BFBCF5E06F3FF6AFAE94
:1009BC00B5EB030C04BFB6EB020C5FEA500C50F124
:1009CC00000041EB045170BD0EF0004E4EEA1131A7
:1009DC0014EB5C04C2BFD4EB0C0541EA045170BDAE
:1009EC0041F480114FF0000E013C90E645EA060EF2
:1009FC008DE60CEA135594EA0C0F08BF95EA0C0F20
:100A0C003FF43BAF94EA0C0F0AD150EA01347FF467
:100A1C0034AF95EA0C0F7FF425AF104619462CE73E
:100A2C0095EA0C0F06D152EA03353FF4FDAE1046A1
:100A3C00194622E750EA410618BF52EA43067FF4F2
:100A4C00C5AE50EA41047FF40DAF52EA43057FF482
:100A5C00EBAE12E74A0011D212F5001211D20DD5ED
:100A6C006FF47873B3EB62520ED44FEAC12343F0A8
:100A7C00004343EA505323FA02F070474FF0000052
:100A8C00704750EA013002D14FF0FF3070474FF001
:100A9C00000070474FEA4102B2F1E04324BFB3F5C6
:100AAC00001CDCF1FE5C0DD901F0004C4FEAC002D9
:100ABC004CEA5070B2F1004F40EB830008BF20F0BD
:100ACC000100704711F0804F21D113F13872BCBF77
:100ADC0001F00040704741F480114FEA5252C2F1CC
:100AEC001802C2F1200C10FA0CF320FA02F018BF15
:100AFC0040F001004FEAC1234FEAD32303FA0CFC68
:100B0C0040EA0C0023FA02F34FEA4303CCE77FEAF6
:100B1C00625307D150EA01331EBF4FF0FE4040F440
:100B2C004000704701F0004040F0FE4040F40000EF
:100B3C00704700BF80F0004002E000BF81F0004130
:100B4C0042001FBF5FEA410392EA030F7FEA226C67
:100B5C007FEA236C6AD04FEA1262D2EB1363C1BFF7
:100B6C00D218414048404140B8BF5B42192B88BF66
:100B7C00704710F0004F40F4000020F07F4018BF89
:100B8C00404211F0004F41F4000121F07F4118BFA9
:100B9C00494292EA030F3FD0A2F1010241FA03FC51
:100BAC0010EB0C00C3F1200301FA03F100F0004339
:100BBC0002D5494260EB4000B0F5000F13D3B0F101
:100BCC00807F06D340084FEA310102F10102FE2A70
:100BDC0051D2B1F1004F40EBC25008BF20F00100E0
:100BEC0040EA03007047490040EB0000013A28BF7F
:100BFC00B0F5000FEDD2B0FA80FCACF1080CB2EB02
:100C0C000C0200FA0CF0AABF00EBC250524218437F
:100C1C00BCBFD0401843704792F0000F81F4000124
:100C2C0006BF80F400000132013BB5E74FEA4103F7
:100C3C007FEA226C18BF7FEA236C21D092EA030F63
:100C4C0004D092F0000F08BF0846704790EA010FDD
:100C5C001CBF0020704712F07F4F04D1400028BF0A
:100C6C0040F00040704712F100723CBF00F50000EC
:100C7C00704700F0004343F0FE4040F40000704722
:100C8C007FEA226216BF08467FEA236301464202CE
:100C9C0006BF5FEA412390EA010F40F480007047E1
:100CAC004FF0000304E000BF10F0004348BF404287
:100CBC005FEA000C08BF704743F0964301464FF0C3
:100CCC0000001CE050EA010208BF70474FF000031F
:100CDC000AE000BF50EA010208BF704711F0004360
:100CEC0002D5404261EB41015FEA010C02BF844630
:100CFC000146002043F0B64308BFA3F18053A3F58F
:100D0C000003BCFA8CF2083AA3EBC25310DB01FAD5
:100D1C0002FC634400FA02FCC2F12002BCF1004F59
:100D2C0020FA02F243EB020008BF20F001007047EA
:100D3C0002F1200201FA02FCC2F1200250EA4C003E
:100D4C0021FA02F243EB020008BF20EADC70704784
:100D5C0042000ED2B2F1FE4F0BD34FF09E03B3EB19
:100D6C00126209D44FEA002343F0004323FA02F045
:100D7C0070474FF00000704712F1610F01D1420231
:100D8C0002D14FF0FF3070474FF00000704700BFAA
:100D9C00B0B5B0B000AF0346FB8007F1A80300224A
:100DAC001A605A609A60DA6007F1980300221A60A0
:100DBC005A609A60DA6007F1900300221A605A6058
:100DCC0007F1740300221A605A609A60DA601A61A3
:100DDC005A619A610023C7F8BC300023C7F8B830B9
:100DEC0001F03EFDFB88874A5B0113441B68864A71
:100DFC0093420CD1854B9B69844A43F00403936165
:100E0C00824B9B6903F00403BB62BB6A52E0FB8814
:100E1C007C4A5B0113441B687D4A93420CD17B4B8B
:100E2C009B697A4A43F008039361784B9B6903F002
:100E3C0008037B627B6A3DE0FB88724A5B011344CA
:100E4C001B68744A93420CD1704B9B696F4A43F0F8
:100E5C00100393616D4B9B6903F010033B623B6A7B
:100E6C0028E0FB88674A5B0113441B686A4A93427B
:100E7C000CD1664B9B69654A43F020039361634B2D
:100E8C009B6903F02003FB61FB6913E0FB885D4A5F
:100E9C005B0113441B68614A93420BD15B4B9B690A
:100EAC005A4A43F040039361584B9B6903F040034B
:100EBC00BB61BB69FB88534A5B01134404331B8839
:100ECC00C7F8A8300223C7F8AC300223C7F8B430F7
:100EDC00FB884C4A5B0113441B6807F1A8021146BE
:100EEC00184602F0EBFCFB88464A5B0113441433B2
:100EFC001B681846FFF722FB4FF00002484BFFF728
:100F0C00C1FC02460B4610461946FFF7A3FD0346EB
:100F1C00C7F8BC30FB883B4A5B01134414331B6895
:100F2C001846FFF70BFB04460D46D7F8BC00FFF73D
:100F3C0005FB4FF000023B4BFFF7C4F902460B4692
:100F4C00104619464FF00002374BFFF771FB024673
:100F5C000B4620462946FFF795FC02460B461046E9
:100F6C0019464FF000022F4BFFF7AAF902460B4629
:100F7C0010461946FFF76EFD0346C7F8B830FB88DC
:100F8C00204A5B01134408331B68284A93420CD156
:100F9C001E4B9B691D4A43F4006393611B4B9B6979
:100FAC0003F400637B617B6959E0FB88154A5B01A4
:100FBC00134408331B68B3F1804F0CD1134BDB691E
:100FCC00124A43F00103D361104BDB6903F00103B8
:100FDC003B613B6943E0FB880A4A5B0113440833DD
:100FEC001B68134A934225D1084BDB69074A43F02F
:100FFC000203D361054BDB6903F00203FB60FB6862
:10100C002DE000BFF06A000800080140001002400B
:10101C00000C014000100140001401400018014078
:10102C00000049410000F03F00004940002C014005
:10103C0000040040FB885F4A5B01134408331B68C3
:10104C005D4A93420BD15D4BDB695C4A43F0040370
:10105C00D3615A4BDB6903F00403BB60BB68FB88AC
:10106C00544A5B01134408331B68FB62D7F8BC304D
:10107C003B6300237B63D7F8B830BB630023FB636F
:10108C0080237B6407F12C03184603F0B3FA4FF46A
:10109C008053C7F8983007F1980207F12C031146DA
:1010AC00184603F001FE07F12C03184603F044FB2D
:1010BC000023C7F890300023C7F8943007F1900252
:1010CC0007F12C031146184604F07AF960237B676C
:1010DC000023BB670023FB670023C7F88430FB8821
:1010EC00344A5B01134410331A6807F1740107F199
:1010FC002C03184603F01AFDD7F8B800FFF71EFAB8
:10110C0004460D46FB882B4A5B01134418331B68BD
:10111C001846FFF735FA4FF00002294BFFF7B2FBE8
:10112C0002460B4620462946FFF782FA02460B463A
:10113C00FC8810461946FFF78DFC03469AB2214BEA
:10114C0023F82420D7F8B800FFF7F8F904460D4629
:10115C00FB88184A5B0113441C331B681846FFF7C5
:10116C000FFA4FF00002164BFFF78CFB02460B46B2
:10117C0020462946FFF75CFA02460B46FC881046CF
:10118C001946FFF767FC034699B20E4AA3001344B5
:10119C000A465A80FB88074A5B01134410331A68CD
:1011AC0007F12C031146184603F016FB00BFC0379D
:1011BC00BD46B0BDF06A00080008004000100240B7
:1011CC00000034409400002080B483B000AF03468C
:1011DC000A46FB801346BB80FB880D4A9B001344D8
:1011EC005B88BA889A420ED8FB88094A32F82330B9
:1011FC00BA889A4207D3FB88064A5B0113440C3326
:10120C001B68BA881A6000BF0C37BD4680BC70479B
:10121C0094000020F06A000880B483B000AF03464D
:10122C00FB80FB88044A9B0013445B8818460C37F0
:10123C00BD4680BC704700BF9400002080B483B0D2
:10124C0000AF0346FB80FB88034A32F82330184674
:10125C000C37BD4680BC70479400002080B500AFB1
:10126C00114B1B881A46C82302FB03F3002B01DA2F
:10127C0003F6FF731B135B429BB2C8339AB20B4B42
:10128C001A800A4B1B881A4609490A4804F06CFF5D
:10129C000848FEF755FF03469AB2642305490648F1
:1012AC0004F04BF900BF80BDA8000020A400002072
:1012BC00806A0008B40000204C0D002080B594B06A
:1012CC0000AF104B1A78104B1B789A4216D00D4B6E
:1012DC001A780D4B1A700B4B1B781A463B460B4970
:1012EC00184604F041FF3B461846FEF729FF03461B
:1012FC009AB239466423064804F01FF900BF5037F0
:10130C00BD4680BDC8000020C9000020906A0008BE
:10131C004C0D002080B594B000AF0821114802F0AC
:10132C0051FC03461A46104B1A70104B1A780E4B90
:10133C001B789A4212D00C4B1B781A463B460C4930
:10134C00184604F011FF3B461846FEF7F9FE03461B
:10135C009AB239460123074804F0EFF800BF503722
:10136C00BD4680BD00080140B1000020B200002045
:10137C00A06A00084C0D002080B500AF4FF48071BE
:10138C00364802F01FFC0346002B25D1142001F037
:10139C00F9FA4FF48071314802F014FC0346012B2A
:1013AC001AD12F4B1B68002B08D12D4B01221A6030
:1013BC002C4B1B681A462C4B1A600DE0284B1B68F3
:1013CC00012B09D1274B1B68274A12689B1AF92B52
:1013DC0002D8234B02221A60214B1B68012B1CD113
:1013EC00204B1B68204A12689B1AB3F57A7F14D9DC
:1013FC001E4B1B6801331D4A13601C4B1B681C4A97
:10140C00136000F03BF8164B00221A60194B0022B7
:10141C001A70642001F0B6FA12E0114B1B68022B13
:10142C000ED1124B00221A60124B01221A700C4B77
:10143C0000221A60104B01221A70FA2001F0A2FA55
:10144C00084B1B68084A12689B1AB3F5FA6F02D94D
:10145C00034B00221A6000BF80BD00BF001001408A
:10146C00E8000020D4000020CC000020DC0000208C
:10147C00E0000020640C0020650C002080B400AF5C
:10148C00114B1A88114B1B681146114A42F8231054
:10149C000D4B5A880D4B1B6811460E4A42F823100F
:1014AC00094B9A88094B1B6811460B4A42F82310CA
:1014BC00054BDA88054B1B681146084A42F8231085
:1014CC0000BFBD4680BC7047880C0020DC000020AB
:1014DC0024010020F4030020C406002094090020FD
:1014EC0080B500AF5A4B1B680133594A1360584BF7
:1014FC001A68584B1B689A4280F2A280544B1B68A6
:10150C00142B07D1544B1A6813465B001344534AEF
:10151C0013601DE04E4B1B68282B07D14E4B1A68ED
:10152C0013465B0013444D4A136011E0484B1B6893
:10153C00502B05D1484B1B685B00484A136007E0F1
:10154C00434B1B68642B03D1434B1B68434A13600A
:10155C00404B1B68A3F1C8023D4B1B689A4205D156
:10156C003D4B1B685B003D4A13602CE0394B1B68FC
:10157C00A3F15002364B1B689A4205D1364B1B68BF
:10158C005B00364A13601EE0324B1B68A3F1280245
:10159C002F4B1B689A4207D12F4B1A6813465B00DE
:1015AC0013442E4A13600EE02A4B1B68A3F114025D
:1015BC00274B1B689A4206D1274B1A6813465B00CF
:1015CC001344264A1360264B1A88264B1B689BB281
:1015DC0013449AB2224B1A80214B5A88214B5B68D8
:1015EC009BB213449AB21E4B5A801D4B9A881D4BCA
:1015FC009B689BB213449AB2194B9A80184BDA88A9
:10160C00184BDB689BB213449AB2154BDA80144B1F
:10161C001B8819460020FFF7D7FD114B5B88194634
:10162C000120FFF7D1FD0E4B9B8819460220FFF7D6
:10163C00CBFD0B4BDB8819460320FFF7C5FD05E0FE
:10164C00094B01221A70024B00221A6000BF80BDA8
:10165C00F0000020EC00002004000020000000201E
:10166C00880C002014010020650C002080B483B08D
:10167C0000AF78607B68002B02DA7B685B4200E08D
:10168C007B6818460C37BD4680BC704780B500AFF0
:10169C00614B1B881A46614B1B68D31A1846FFF71F
:1016AC00E5FF03465E4A13605B4B5B881A465B4B57
:1016BC005B68D31A1846FFF7D9FF0346584A5360A4
:1016CC00554B9B881A46554B9B68D31A1846FFF707
:1016DC00CDFF0346524A93604F4BDB881A464F4B63
:1016EC00DB68D31A1846FFF7C1FF03464C4AD36098
:1016FC004B4B1B684A4A52681146184600F098F842
:10170C000346484A1360474B1B68454A926811468A
:10171C00184600F08DF80346424A1360414B1B6893
:10172C003F4AD2681146184600F082F803463D4AFB
:10173C0013603C4B4FF448721A603A4B1B68B3F57C
:10174C00FA7F03DA384B01221A6002E0364B012291
:10175C001A60324B1B68304A1288934209DA304BBC
:10176C001A68304B1B6892FBF3F35B422F4A1360F1
:10177C0007E02B4B1A682B4B1B6892FBF3F32B4A9D
:10178C001360264B5B68244A5288934209DA244B37
:10179C005A68244B1B6892FBF3F35B42234A536059
:1017AC0007E01F4B5A681F4B1B6892FBF3F31F4A51
:1017BC0053601A4B9B68184A9288934209DA184B6B
:1017CC009A68184B1B6892FBF3F35B42174A9360C1
:1017DC0007E0134B9A68134B1B6892FBF3F3134A05
:1017EC0093600E4BDB680C4AD288934209DA0C4B9F
:1017FC00DA680C4B1B6892FBF3F35B420B4AD36029
:10180C0007E0074BDA68074B1B6892FBF3F3074AB8
:10181C00D36000BF80BD00BF880C002004010020F5
:10182C00F4000020EC000020040000201401002033
:10183C0080B483B000AF786039607A683B689A42B4
:10184C0001DD7B6800E03B6818460C37BD4680BC68
:10185C007047000080B400AF0F4B1B680F4A52F862
:10186C0023300F4A13600C4B1B680E4A52F823307E
:10187C000B4A5360084B1B680B4A52F82330084A3A
:10188C009360054B1B68094A52F82330044AD36015
:10189C0000BFBD4680BC7047DC0000202401002046
:1018AC0004010020F4030020C40600209409002049
:1018BC0080B500AF244B1B78002B02D100F056F8FA
:1018CC0040E0214B1B78002B3CD0204B1B78002B8D
:1018DC0038D01F4B1B78002B2DD01E4B1A681E4B7B
:1018EC001B689A420CDA1B4B1B680133194A1360B4
:1018FC00FFF7B0FFFFF7CAFE154B00221A7021E06C
:10190C00124B00221A70154B1B780133DAB2134BB1
:10191C001A70104B00221A60114B00221A6004E05E
:10192C000F4B1B6801330E4A13600D4B1B68B3F54C
:10193C00967FF5DB06E00B4B1B681A460A4B1A60C8
:10194C00FFF7CEFD00BF80BD640C0020B30000206B
:10195C00650C0020DC000020E0000020C800002006
:10196C00E4000020D8000020D000002098B500AF83
:10197C00464B1B88C3F57F630F331846FFF794F96A
:10198C000246434B1B6819461046FEF7E1FB034623
:10199C001C46404B1B881846FFF786F90346194630
:1019AC002046FFF7CDF803461846FFF7D1F903465A
:1019BC009AB2394B1A80384B1B8819460020FFF716
:1019CC0003FC324B5B88C3F57F630F331846FFF77C
:1019DC006BF902462E4B5B6819461046FEF7B8FBB6
:1019EC0003461846FFF7B4F903469AB2294B5B88B5
:1019FC0013449AB2284B5A80274B5B881946012016
:101A0C00FFF7E2FB214B9B88C3F57F630F3318462E
:101A1C00FFF74AF902461E4B9B6819461046FEF723
:101A2C0097FB03461846FFF793F903469AB2194BF6
:101A3C009B8813449AB2184B9A80174B9B88194673
:101A4C000220FFF7C1FB114BDB88C3F57F630F331B
:101A5C001846FFF729F902460D4BDB68194610466C
:101A6C00FEF776FB03461846FFF772F903469AB267
:101A7C00084BDB8813449AB2074BDA80064BDB88A1
:101A8C0019460320FFF7A0FB00BF98BDA80000205B
:101A9C00780C0020680C0020880C002080B500AF6A
:101AAC0000F00EFF00F0F6F80020FFF771F90120AE
:101ABC00FFF76EF90220FFF76BF90320FFF768F9C7
:101ACC0000F050FA00F028FA00F0FCF900F03EF9B2
:101ADC0000F0ACF904226149614801F04FF8012291
:101AEC006049614803F0BBFD604802F0D3FD002063
:101AFC00FFF7A4FB03461A465D4B1A800020FFF744
:101B0C008BFB03461A465B4B1A805A4B1B881A46B2
:101B1C00574B1B88D31A1846FEF720FD4FF00002D6
:101B2C00554BFEF7AFFE02460B4610461946FEF724
:101B3C00B1FF0346514A13600120FFF77FFB0346B8
:101B4C001A464B4B5A800120FFF766FB03461A4698
:101B5C00484B5A80474B5B881A46454B5B88D31AD7
:101B6C001846FEF7FBFC4FF00002434BFEF78AFED3
:101B7C0002460B4610461946FEF78CFF03463F4AB9
:101B8C0053600220FFF75AFB03461A46384B9A80E3
:101B9C000220FFF741FB03461A46364B9A80354B21
:101BAC009B881A46324B9B88D31A1846FEF7D6FCF4
:101BBC004FF00002304BFEF765FE02460B46104616
:101BCC001946FEF767FF03462C4A93600320FFF784
:101BDC0035FB03461A46264BDA800320FFF71CFB25
:101BEC0003461A46234BDA80224BDB881A46204BDD
:101BFC00DB88D31A1846FEF7B1FC4FF000021E4BDF
:101C0C00FEF740FE02460B4610461946FEF742FF11
:101C1C0003461A4AD36042F6E0624FF47A711848D0
:101C2C0000F012FB4FF4FA724FF47A71154800F081
:101C3C000BFB40F6E44241F27071134800F004FBD8
:101C4C0001220A21114800F0FFFA01220C21104850
:101C5C0000F0FAFA00F0AEFBFCE700BFA800002091
:101C6C00900C0020B00000204C0D0020040D002032
:101C7C00680C0020700C00200000B040780C002094
:101C8C0069120008C9120008211300088513000806
:101C9C00BD18000880B594B000AF07F128032822C6
:101CAC000021184604F058FA07F1140300221A60B8
:101CBC005A609A60DA601A613B1D00221A605A6001
:101CCC009A60DA600123BB624FF48033FB6200231D
:101CDC003B630123BB6302237B644FF48033BB64FF
:101CEC004FF4E013FB6407F12803184601F0B2FF30
:101CFC000346002B01D000F0A1FA0F237B610223D5
:101D0C00BB610023FB614FF480633B6200237B6269
:101D1C0007F114030221184602F01EFA0346002BA9
:101D2C0001D000F08BFA02237B604FF40043FB6080
:101D3C003B1D184602F0A8FB0346002B01D000F017
:101D4C007DFA00BF5037BD4680BD000080B584B021
:101D5C0000AF3B1D00221A605A609A60314B324A28
:101D6C001A60304B4FF480729A602E4B01221A731A
:101D7C002C4B00221A752B4B4FF46022DA61294B45
:101D8C0000225A60274B04221A61264800F01EFEDE
:101D9C000346002B01D000F051FA00237B60012395
:101DAC00BB600623FB603B1D19461E4800F0E0FF9C
:101DBC000346002B01D000F041FA01237B60022383
:101DCC00BB600523FB603B1D1946164800F0D0FF95
:101DDC000346002B01D000F031FA02237B60032371
:101DEC00BB600423FB603B1D19460E4800F0C0FF8E
:101DFC000346002B01D000F021FA04237B6004235E
:101E0C00BB600723FB603B1D1946064800F0B0FF82
:101E1C000346002B01D000F011FA00BF1037BD466D
:101E2C0080BD00BF900C00200024014080B586B01E
:101E3C0000AF07F1080300221A605A609A60DA605A
:101E4C003B4600221A605A601D4B4FF080421A60CC
:101E5C001B4B47225A601A4B00229A60184B40F2D7
:101E6C00E732DA60164B00221A61154B00229A6198
:101E7C00134802F0BFFB0346002B01D000F0DEF943
:101E8C004FF48053BB6007F1080319460C4802F06D
:101E9C000BFF0346002B01D000F0D0F900233B6070
:101EAC0000237B603B461946054803F089FA03463C
:101EBC00002B01D000F0C2F900BF1837BD4680BD21
:101ECC00040D002080B500AF114B124A1A60104B64
:101EDC004FF416525A600E4B00229A600C4B0022A3
:101EEC00DA600B4B00221A61094B0C225A61084B29
:101EFC0000229A61064B0022DA61054803F0D0FA01
:101F0C000346002B01D000F099F900BF80BD00BF43
:101F1C004C0D00200038014080B582B000AF104B52
:101F2C005B690F4A43F0010353610D4B5B6903F08E
:101F3C0001037B607B68002201210B2001F0E9F991
:101F4C000B2001F002FA002201210F2001F0E1F92F
:101F5C000F2001F0FAF900BF0837BD4680BD00BF65
:101F6C000010024080B588B000AF07F110030022CA
:101F7C001A605A609A60DA603E4B9B693D4A43F0A6
:101F8C00100393613B4B9B6903F01003FB60FB68F0
:101F9C00384B9B69374A43F020039361354B9B695F
:101FAC0003F02003BB60BB68324B9B69314A43F0A2
:101FBC00040393612F4B9B6903F004037B607B68E4
:101FCC002C4B9B692B4A43F008039361294B9B696B
:101FDC0003F008033B603B6800222821264801F0EF
:101FEC0008FE00224FF40071244801F002FE4FF469
:101FFC0000533B61224B7B610023BB6107F1100353
:10200C0019461E4801F05AFC28233B6101237B61D1
:10201C000023BB610223FB6107F11003194616482C
:10202C0001F04CFC4FF480733B6100237B61002377
:10203C00BB6107F110031946104801F03FFC4FF447
:10204C0000733B6101237B610023BB610223FB61B5
:10205C0007F110031946094801F030FC0022022157
:10206C00282001F056F9282001F06FF900BF203725
:10207C00BD4680BD00100240000801400010014028
:10208C000000111080B582B000AF0346FB80FB88C6
:10209C00B3F5005F28D10821154801F093FD0346E4
:1020AC001A46144B1A70134B1B78002B0ED1114B84
:1020BC0001221A70012208210D4801F09AFD022319
:1020CC000C220D490D4803F038FA0DE0094B0022A3
:1020DC001A7000220821064801F08BFD02230C2205
:1020EC000749064803F029FA00BF0837BD4680BDF2
:1020FC0000080140B1000020B06A00084C0D00201F
:10210C00C06A000880B582B000AF78607B681B683D
:10211C002E4A934254D12E4B1B78313B072B50D86F
:10212C0001A252F823F000BF552100086D210008D0
:10213C008521000899210008AD210008B52100086F
:10214C00BD210008C521000800222021214801F0F2
:10215C0050FD022302222049204803F0EEF930E022
:10216C00012220211B4801F044FD022302221C49BC
:10217C001A4803F0E2F924E01A4B00221A700223E9
:10218C0002221949154803F0D8F91AE0154B01221F
:10219C001A70022302221549104803F0CEF910E000
:1021AC00134B00221A700CE0114B01221A7008E03C
:1021BC000C4B01221A7004E00A4B00221A7000E04A
:1021CC0000BF00BF0837BD4680BD00BF00380140CE
:1021DC00B000002000080140D06A00084C0D00201F
:1021EC00D46A0008B3000020D86A0008DC6A000832
:1021FC00B200002080B582B000AF78607B681B68AD
:10220C00B3F1804F10D100F075F8094B1B68013306
:10221C00074A1360074B1B680133064A1360064BD1
:10222C001B680133044A136000BF0837BD4680BDEC
:10223C00D4000020D8000020D40D002080B400AFC2
:10224C0072B600BFFEE7000080B485B000AFF86046
:10225C00B9607A60254B1B78272B42D8234B1B780F
:10226C001946234A0B469B000B449B001344FA6807
:10227C001A601E4B1B7819461D4A0B469B000B44DB
:10228C009B0013440433BA681A60184B1B78194628
:10229C00174A0B469B000B449B00134408337A6887
:1022AC001A60124B1B781946114A0B469B000B44C3
:1022BC009B0013440C3300221A700C4B1A780B4BF6
:1022CC001B78194610460A4A0B469B000B449B0090
:1022DC00134410331860054B1B780133DAB2034BEF
:1022EC001A7000BF1437BD4680BC7047F810002030
:1022FC00D80D002080B483B000AF00237B6048E091
:10230C002A497A6813469B0013449B000B44043300
:10231C001B68002B13D025497A6813469B00134485
:10232C009B000B4404331B68591E20487A681346E3
:10233C009B0013449B0003440433196026E01B49A3
:10234C007A6813469B0013449B000B4408331968AE
:10235C0016487A6813469B0013449B0003440433CD
:10236C00196012497A6813469B0013449B000B4476
:10237C000C331B780133D8B20C497A6813469B0096
:10238C0013449B000B440C3302461A707B680133D8
:10239C007B60074B1B781A467B689342B0DB00BF0F
:1023AC0000BF0C37BD4680BC704700BFD80D002065
:1023BC00F810002080B582B000AF00237B602BE0CA
:1023CC001B497A6813469B0013449B000B440C3347
:1023DC001B78002B1DD016497A6813469B001344BA
:1023EC009B000B440C331B78013BD8B210497A6824
:1023FC0013469B0013449B000B440C3302461A708B
:10240C000B497A6813469B0013449B000B441B68D2
:10241C0098477B6801337B60064B1B781A467B68B8
:10242C009342CDDB00BF00BF0837BD4680BD00BF67
:10243C00D80D0020F810002080B485B000AF154BEB
:10244C009B69144A43F001039361124B9B6903F09F
:10245C000103BB60BB680F4BDB690E4A43F0805332
:10246C00D3610C4BDB6903F080537B607B680A4BB8
:10247C005B68FB60FB6823F0E063FB60FB6843F088
:10248C000073FB60044AFB68536000BF1437BD4601
:10249C0080BC7047001002400000014080B588B03D
:1024AC0000AF786007F1100300221A605A609A603E
:1024BC00DA607B681B68284A934249D1274B9B6999
:1024CC00264A43F400739361244B9B6903F4007315
:1024DC00FB60FB68214B9B69204A43F0040393612A
:1024EC001E4B9B6903F00403BB60BB6817233B6165
:1024FC0003237B6107F110031946194801F0DEF93B
:10250C00184B194A1A60174B00225A60154B0022BF
:10251C009A60144B8022DA60124B4FF480721A616D
:10252C00104B4FF480625A610E4B20229A610D4B76
:10253C000022DA610B4800F023FF0346002B01D088
:10254C00FFF77CFE7B68074A1A62064A7B68536277
:10255C0000BF2037BD4680BD002401400010024062
:10256C0000080140C00C00200800024080B584B077
:10257C0000AF78607B681B68B3F1804F13D10C4BB4
:10258C00DB690B4A43F00103D361094BDB6903F0B0
:10259C000103FB60FB68002200211C2000F0B9FE47
:1025AC001C2000F0D2FE00BF1037BD4680BD00BF1E
:1025BC000010024080B485B000AF78607B681B6867
:1025CC00094A93420BD1094BDB69084A43F00203D9
:1025DC00D361064BDB6903F00203FB60FB6800BFB1
:1025EC001437BD4680BC7047000400400010024008
:1025FC0080B588B000AF786007F1100300221A6034
:10260C005A609A60DA607B681B68334A93425FD1E8
:10261C00324B9B69314A43F4804393612F4B9B6946
:10262C0003F48043FB60FB682C4B9B692B4A43F003
:10263C0004039361294B9B6903F00403BB60BB68E3
:10264C004FF400733B6102237B610323FB6107F1B1
:10265C0010031946224801F031F94FF480633B61B5
:10266C0000237B610023BB6107F1100319461C4852
:10267C0001F024F91B4B1C4A1A601A4B00225A60B9
:10268C00184B00229A60174B8022DA60154B0022FF
:10269C001A61144B00225A61124B20229A61114B81
:1026AC000022DA610F4800F06BFE0346002B01D0CC
:1026BC00FFF7C4FD7B680B4A9A630A4A7B68536236
:1026CC0000220021252000F024FE252000F03DFEF4
:1026DC0000BF2037BD4680BD0038014000100240CD
:1026EC0000080140900D00205800024080B400AF5B
:1026FC00FEE780B400AFFEE780B400AFFEE780B425
:10270C0000AFFEE780B400AFFEE780B400AF00BFBF
:10271C00BD4680BC704780B400AF00BFBD4680BCD6
:10272C00704780B400AF00BFBD4680BC704780B519
:10273C0000AF00F00BF900BF80BD000080B500AF0A
:10274C00024800F087FF00BF80BD00BFC00C002016
:10275C0080B500AF024800F07DFF00BF80BD00BF18
:10276C00900D002080B500AF024802F0D7F800BFF2
:10277C0080BD00BF040D002080B500AF024802F000
:10278C009FFF00BF80BD00BF4C0D002080B500AF87
:10279C004FF4005001F046FA00BF80BD80B586B002
:1027AC0000AF7860144A154BD31A7B617B693B618F
:1027BC00134B1B68002B02D1114B124A1A60104BA1
:1027CC001A687B6813443A699A4207D203F09AFC60
:1027DC0003460C221A604FF0FF3309E0084B1B68CC
:1027EC00FB60074B1A687B681344054A1360FB684F
:1027FC0018461837BD4680BD00500020000400006C
:10280C00FC1000201811002080B400AF00BFBD46A2
:10281C0080BC70470C480D490D4A002302E0D45887
:10282C00C4500433C4188C42F9D30A4A0A4C00230E
:10283C0001E013600432A242FBD3FFF7E5FF03F083
:10284C0067FCFFF72BF97047000000207800002090
:10285C00C46B00087800002014110020FEE7000073
:10286C0080B400AF144BDB68134A23F08073D36041
:10287C00114BDB68104A43F08073D3600F4B1B681D
:10288C000E4A23F0010313600C4B1B680B4A43F0F8
:10289C0001031360094B00225A6000BF00BF00BF48
:1028AC00064B5B68002B01D0002300E00123184687
:1028BC00BD4680BC704700BFF0ED00E0001000E0AA
:1028CC0080B500AF084B1B68074A43F01003136038
:1028DC00032000F013FD0F2000F008F8FFF7ACFD0B
:1028EC000023184680BD00BF0020024080B582B096
:1028FC0000AF7860124B1A68124B1B7819464FF4D4
:10290C007A73B3FBF1F3B2FBF3F3184600F02BFD33
:10291C000346002B01D001230EE07B680F2B0AD855
:10292C00002279684FF0FF3000F0F3FC064A7B6818
:10293C001360002300E0012318460837BD4680BD14
:10294C0008000020100000200C00002080B400AF14
:10295C00054B1B781A46054B1B681344034A13603E
:10296C0000BFBD4680BC7047100000200011002045
:10297C0080B400AF024B1B681846BD4680BC704744
:10298C000011002080B584B000AF7860FFF7F0FF35
:10299C00B8607B68FB60FB68B3F1FF3F05D00A4B66
:1029AC001B781A46FB681344FB6000BFFFF7E0FF7F
:1029BC000246BB68D31AFA689A42F7D800BF00BF28
:1029CC001037BD4680BD00BF1000002080B586B01A
:1029DC0000AF78600023FB7500233B610023BB60D4
:1029EC000023FB607B68002B01D10123BEE07B68D8
:1029FC009B68002B7B689B6A002B09D17B680022AB
:102A0C00DA627B68002283F824207868FFF746FDA1
:102A1C00786800F0FFFA0346FB757B689B6A03F04D
:102A2C001003002B40F09980FB7D002B40F095802B
:102A3C007B689B6A23F4885323F0020343F0020261
:102A4C007B689A627B685A687B68DB691A437B688F
:102A5C001B7B5B001343BA681343BB607B689B68AA
:102A6C00B3F5807F03D07B689B68012B02D14FF4B8
:102A7C00807300E000233A6913433B617B681B7D44
:102A8C00012B19D17B681B7B002B09D17B689B69BF
:102A9C00013B5A033B69134343F400633B610BE076
:102AAC007B689B6A43F020027B689A627B68DB6AD6
:102ABC0043F001027B68DA627B681B685B6823F475
:102ACC0069417B681B683A690A435A607B681B68DA
:102ADC009A68284B13407A681268B9680B43936064
:102AEC007B689B68B3F5807F03D07B689B68012B68
:102AFC0004D17B681B69013B1B05FB607B681B6871
:102B0C00DB6A23F470017B681B68FA680A43DA629B
:102B1C007B681B689A68184B1340BA689A420BD1B1
:102B2C007B680022DA627B689B6A23F0030343F024
:102B3C0001027B689A6218E07B689B6A23F012039F
:102B4C0043F010027B689A627B68DB6A43F00102F7
:102B5C007B68DA620123FB7507E07B689B6A43F0B4
:102B6C0010027B689A620123FB75FB7D18461837AF
:102B7C00BD4680BDFDF7E1FFFE0E1FFF80B586B0A0
:102B8C0000AFF860B9607A600023FB75FB681B68C6
:102B9C00644A934204D0FB681B68634A934206D193
:102BAC00604B5B6803F47023002B40F0B380FB6830
:102BBC0093F82430012B01D10223AEE0FB680122F3
:102BCC0083F82420F86800F0CBF90346FB75FB7DF5
:102BDC00002B40F09A80FB689B6A23F4706323F00F
:102BEC00010343F48072FB689A62FB681B684E4ACF
:102BFC00934205D14B4B5B6803F47023002B15D12A
:102C0C00FB689B6A23F48012FB689A62FB681B6862
:102C1C005B6803F48063002B26D0FB689B6A23F46B
:102C2C00405343F48052FB689A621DE0FB689B6A38
:102C3C0043F48012FB689A62FB681B68394A934222
:102C4C0004D0FB681B68384A93420DD1354B5B6846
:102C5C0003F48063002B07D0FB689B6A23F440537A
:102C6C0043F48052FB689A62FB689B6A03F48053BE
:102C7C00002B06D0FB68DB6A23F00602FB68DA62E5
:102C8C0002E0FB680022DA62FB68002283F8242051
:102C9C00FB681B6A254A9A62FB681B6A244ADA6243
:102CAC00FB681B6A234A1A63FB681B686FF00202FD
:102CBC001A60FB681B689A68FB681B6842F4807298
:102CCC009A60FB68186AFB681B684C331946BA6833
:102CDC007B6800F0AFFBFB681B689B6803F4602308
:102CEC00B3F5602F08D1FB681B689A68FB681B68FA
:102CFC0042F4A0029A600FE0FB681B689A68FB68BC
:102D0C001B6842F480129A6006E0FB68002283F88C
:102D1C00242001E00123FB75FB7D18461837BD46C6
:102D2C0080BD00BF0024014000280140A3300008F2
:102D3C001F3100083B31000880B483B000AF7860CD
:102D4C0000BF0C37BD4680BC704780B483B000AF69
:102D5C00786000BF0C37BD4680BC704780B483B030
:102D6C0000AF786000BF0C37BD4680BC70470000D8
:102D7C0080B485B000AF786039600023FB7300230A
:102D8C00BB607B6893F82430012B01D10223DCE07B
:102D9C007B68012283F824203B685B68062B1CD8D7
:102DAC007B681B68596B3B685A6813469B0013443D
:102DBC00053B1F2202FA03F3DB4319403B681868FA
:102DCC003B685A6813469B001344053B00FA03F218
:102DDC007B681B680A435A633CE03B685B680C2BBE
:102DEC001CD87B681B68196B3B685A6813469B00A0
:102DFC001344233B1F2202FA03F3DB4319403B68C5
:102E0C0018683B685A6813469B001344233B00FA2E
:102E1C0003F27B681B680A431A631BE07B681B6820
:102E2C00D96A3B685A6813469B001344413B1F22E6
:102E3C0002FA03F3DB4319403B6818683B685A6895
:102E4C0013469B001344413B00FA03F27B681B685A
:102E5C000A43DA623B681B68092B1CD97B681B6828
:102E6C00D9683B681A6813465B0013441E3B072263
:102E7C0002FA03F3DB4319403B6898683B681A6815
:102E8C0013465B0013441E3B00FA03F27B681B687D
:102E9C000A43DA6019E07B681B6819693B681A6899
:102EAC0013465B001344072202FA03F3DB43194079
:102EBC003B6898683B681A6813465B00134400FA39
:102ECC0003F27B681B680A431A613B681B68102B72
:102EDC0003D03B681B68112B32D17B681B681D4AE1
:102EEC00934225D17B681B689B6803F40003002B7D
:102EFC0026D17B681B689A687B681B6842F40002C9
:102F0C009A603B681B68102B1AD1134B1B68134A31
:102F1C00A2FB03239A0C13469B0013445B00BB607B
:102F2C0002E0BB68013BBB60BB68002BF9D107E03A
:102F3C007B689B6A43F020027B689A620123FB73D7
:102F4C007B68002283F82420FB7B18461437BD468F
:102F5C0080BC7047002401400800002083DE1B4326
:102F6C0080B584B000AF78600023FB600023BB60A9
:102F7C007B681B689B6803F00103012B40D07B68C6
:102F8C001B689A687B681B6842F001029A601F4BB1
:102F9C001B681F4AA2FB03239B0CBB6002E0BB68AF
:102FAC00013BBB60BB68002BF9D1FFF7E1FCF8607B
:102FBC001FE0FFF7DDFC0246FB68D31A022B18D981
:102FCC007B681B689B6803F00103012B11D07B68A5
:102FDC009B6A43F010027B689A627B68DB6A43F061
:102FEC0001027B68DA627B68002283F824200123CB
:102FFC0007E07B681B689B6803F00103012BD8D1A9
:10300C00002318461037BD4680BD00BF08000020C5
:10301C0083DE1B4380B584B000AF78600023FB6077
:10302C007B681B689B6803F00103012B2ED17B6826
:10303C001B689A687B681B6822F001029A60FFF794
:10304C0097FCF8601BE0FFF793FC0246FB68D31A71
:10305C00022B14D97B681B689B6803F00103012BBE
:10306C000DD17B689B6A43F010027B689A627B6887
:10307C00DB6A43F001027B68DA62012307E07B68BC
:10308C001B689B6803F00103012BDCD0002318465E
:10309C001037BD4680BD80B584B000AF78607B68CA
:1030AC005B6AFB60FB689B6A03F05003002B27D123
:1030BC00FB689B6A43F40072FB689A62FB681B68AE
:1030CC009B6803F46023B3F5602F15D1FB681B7B61
:1030DC00002B11D1FB689B6A23F48072FB689A6207
:1030EC00FB689B6A03F48053002B05D1FB689B6A39
:1030FC0043F00102FB689A62F868FFF71DFE04E0DA
:10310C00FB681B6A1B6B7868984700BF1037BD467D
:10311C0080BD80B584B000AF78607B685B6AFB6073
:10312C00F868FFF712FE00BF1037BD4680BD80B5B2
:10313C0084B000AF78607B685B6AFB60FB689B6A5D
:10314C0043F04002FB689A62FB68DB6A43F00402BE
:10315C00FB68DA62F868FFF701FE00BF1037BD4666
:10316C0080BD000080B485B000AF78607B6803F050
:10317C000703FB600C4BDB68BB60BA684FF6FF03C0
:10318C001340BB60FB681A02BB68134343F0BF6378
:10319C0043F40033BB60044ABB68D36000BF1437F0
:1031AC00BD4680BC704700BF00ED00E080B400AFAE
:1031BC00044BDB681B0A03F007031846BD4680BCB2
:1031CC00704700BF00ED00E080B483B000AF034651
:1031DC00FB7197F90730002B0BDBFB7903F01F0217
:1031EC00064997F907305B09012000FA02F241F811
:1031FC00232000BF0C37BD4680BC704700E100E0C7
:10320C0080B483B000AF03463960FB7197F9073087
:10321C00002B0ADB3B68DAB20C4997F90730120134
:10322C00D2B20B4483F800230AE03B68DAB20849B7
:10323C00FB7903F00F03043B1201D2B20B441A7654
:10324C0000BF0C37BD4680BC704700BF00E100E0FA
:10325C0000ED00E080B489B000AFF860B9607A602E
:10326C00FB6803F00703FB61FB69C3F10703042B45
:10327C0028BF0423BB61FB690433062B02D9FB690D
:10328C00033B00E000237B614FF0FF32BB6902FA85
:10329C0003F3DA43BB681A407B699A404FF0FF3165
:1032AC007B6901FA03F3D9437B680B40134318463F
:1032BC002437BD4680BC704780B582B000AF7860C3
:1032CC007B68013BB3F1807F01D301230FE00A4AF5
:1032DC007B68013B53600F214FF0FF30FFF790FFED
:1032EC00054B00229A60044B07221A6000231846F3
:1032FC000837BD4680BD00BF10E000E080B582B04D
:10330C0000AF78607868FFF72DFF00BF0837BD4627
:10331C0080BD80B586B000AF0346B9607A60FB73A0
:10332C0000237B61FFF742FF78617A68B96878699E
:10333C00FFF790FF024697F90F3011461846FFF73A
:10334C005FFF00BF1837BD4680BD80B582B000AFAF
:10335C000346FB7197F907301846FFF735FF00BF9E
:10336C000837BD4680BD80B582B000AF7860786804
:10337C00FFF7A2FF034618460837BD4680BD000084
:10338C0080B485B000AF78600023FB607B68002BB5
:10339C0001D1012343E07B681B681A46224B13447E
:1033AC00224AA2FB03231B099A007B681A647B68E0
:1033BC001F4ADA637B68022283F821207B681B6832
:1033CC001B68FB60FB6823F47F5323F03003FB6026
:1033DC007B685A687B689B681A437B68DB681A4376
:1033EC007B681B691A437B685B691A437B689B6922
:1033FC001A437B68DB691343FA681343FB607B68F1
:10340C001B68FA681A607B6800229A637B68012249
:10341C0083F821207B68002283F8202000231846A3
:10342C001437BD4680BC7047F8FFFDBFCDCCCCCC6B
:10343C000000024080B586B000AFF860B9607A60D9
:10344C003B600023FB75FB6893F82030012B01D106
:10345C0002234AE0FB68012283F82020FB6893F8E2
:10346C002130012B3AD1FB68022283F82120FB6822
:10347C0000229A63FB681B681A68FB681B6822F0C1
:10348C0001021A603B687A68B968F86800F0E8F9DC
:10349C00FB68DB6A002B08D0FB681B681A68FB68AA
:1034AC001B6842F00E021A600FE0FB681B681A687A
:1034BC00FB681B6822F004021A60FB681B681A6820
:1034CC00FB681B6842F00A021A60FB681B681A68EA
:1034DC00FB681B6842F001021A6005E0FB680022E1
:1034EC0083F820200223FB75FB7D18461837BD4658
:1034FC0080BD80B485B000AF78600023FB737B681F
:10350C0093F82130022B08D07B6804229A637B68E5
:10351C00002283F82020012320E07B681B681A68B6
:10352C007B681B6822F00E021A607B681B681A68A5
:10353C007B681B6822F001021A607B681A6C7B683E
:10354C00DB6B012101FA02F25A607B68012283F8DD
:10355C0021207B68002283F82020FB7B184614373F
:10356C00BD4680BC7047000080B584B000AF786069
:10357C000023FB737B6893F82130022B05D07B680A
:10358C0004229A630123FB7351E07B681B681A6861
:10359C007B681B6822F00E021A607B681B681A6835
:1035AC007B681B6822F001021A607B681B68224A48
:1035BC00934229D07B681B68204A934222D07B68B7
:1035CC001B681F4A93421AD07B681B681D4A9342A2
:1035DC0012D07B681B681C4A93420AD07B681B681C
:1035EC001A4A934202D14FF480130EE04FF08073CD
:1035FC000BE04FF4803308E04FF4805305E04FF4B8
:10360C00807302E0102300E00123114A53607B68B1
:10361C00012283F821207B68002283F820207B681C
:10362C005B6B002B03D07B685B6B78689847FB7BEC
:10363C0018461037BD4680BD080002401C000240F1
:10364C003000024044000240580002406C0002402E
:10365C000000024080B584B000AF78607B68DB6B03
:10366C001B68FB607B681B681B68BB607B681B6C02
:10367C0004229A40FB681340002B4FD0BB6803F028
:10368C000403002B4AD07B681B681B6803F02003E3
:10369C00002B07D17B681B681A687B681B6822F0BB
:1036AC0004021A607B681B68664A934229D07B68C7
:1036BC001B68654A934222D07B681B68634A93421D
:1036CC001AD07B681B68624A934212D07B681B68D5
:1036DC00604A93420AD07B681B685F4A934202D1CE
:1036EC004FF480030EE04FF080630BE04FF4802327
:1036FC0008E04FF4804305E04FF4806302E0402380
:10370C0000E00423554A53607B68DB6A002B00F011
:10371C0094807B68DB6A786898478EE07B681B6CCA
:10372C0002229A40FB681340002B56D0BB6803F072
:10373C000203002B51D07B681B681B6803F020032D
:10374C00002B0BD17B681B681A687B681B6822F006
:10375C000A021A607B68012283F821207B681B68AF
:10376C00384A934229D07B681B68374A934222D04F
:10377C007B681B68354A93421AD07B681B68344AB5
:10378C00934212D07B681B68324A93420AD07B6802
:10379C001B68314A934202D14FF400130EE04FF0F4
:1037AC0000730BE04FF4003308E04FF4005305E0D6
:1037BC004FF4007302E0202300E00223274A5360F9
:1037CC007B68002283F820207B689B6A002B34D016
:1037DC007B689B6A786898472FE07B681B6C082293
:1037EC009A40FB681340002B28D0BB6803F00803F9
:1037FC00002B23D07B681B681A687B681B6822F03F
:10380C000E021A607B681A6C7B68DB6B012101FA73
:10381C0002F25A607B6801229A637B68012283F86A
:10382C0021207B68002283F820207B681B6B002BF7
:10383C0004D07B681B6B7868984700BF00BF1037BB
:10384C00BD4680BD080002401C0002403000024012
:10385C0044000240580002406C000240000002404C
:10386C0080B485B000AFF860B9607A603B60FB68EB
:10387C001A6CFB68DB6B012101FA02F25A60FB68DF
:10388C001B683A685A60FB685B68102B08D1FB68B0
:10389C001B687A689A60FB681B68BA68DA6007E094
:1038AC00FB681B68BA689A60FB681B687A68DA6008
:1038BC0000BF1437BD4680BC7047000080B48BB08D
:1038CC0000AF7860396000237B6200233B6269E1C2
:1038DC0001227B6A02FA03F3FB613B681B68FA69FD
:1038EC001340BB61BA69FB699A4240F058813B684E
:1038FC005B689A4A93425ED0984A934275D8984A2C
:10390C00934258D0964A93426FD8964A934252D0DB
:10391C00944A934269D8944A93424CD0924A934227
:10392C0063D8924A934246D0904A93425DD8122B68
:10393C002AD8122B59D801A252F823F0C339000807
:10394C009D390008AF390008F1390008F739000833
:10395C00F7390008F7390008F7390008F73900087B
:10396C00F7390008F7390008F7390008F73900086B
:10397C00F7390008F7390008F7390008F73900085B
:10398C00A5390008B9390008794A934213D02CE0C4
:10399C003B68DB683B6229E03B68DB6804333B62D5
:1039AC0024E03B68DB6808333B621FE03B68DB6864
:1039BC000C333B621AE03B689B68002B02D104235A
:1039CC003B6213E03B689B68012B05D108233B62EB
:1039DC007B68FA691A6109E008233B627B68FA6923
:1039EC005A6103E000233B6200E000BFBB69FF2B80
:1039FC0001D87B6801E07B6804337B61BB69FF2BDA
:103A0C0002D87B6A9B0002E07B6A083B9B003B610F
:103A1C007B691A680F213B6901FA03F3DB431A40F7
:103A2C00396A3B6901FA03F31A437B691A603B68F4
:103A3C005B6803F08053002B00F0B1804D4B9B6909
:103A4C004C4A43F0010393614A4B9B6903F0010319
:103A5C00BB60BB68484A7B6A9B08023352F8233030
:103A6C00FB607B6A03F003039B000F2202FA03F353
:103A7C00DB43FA681340FB607B68404A934213D0E7
:103A8C007B683F4A93420DD07B683E4A934207D0F5
:103A9C007B683D4A934201D1032306E0042304E0F2
:103AAC00022302E0012300E000237A6A02F0030201
:103ABC0092009340FA681343FB602F497B6A9B0882
:103ACC000233FA6841F823203B685B6803F48033C7
:103ADC00002B06D02D4B1A682C49BB6913430B6085
:103AEC0006E02A4B1A68BB69DB43284913400B607C
:103AFC003B685B6803F40033002B06D0234B5A68F9
:103B0C002249BB6913434B6006E0204B5A68BB69E2
:103B1C00DB431E4913404B603B685B6803F4801326
:103B2C00002B06D0194B9A681849BB6913438B605C
:103B3C0006E0164B9A68BB69DB43144913408B6053
:103B4C003B685B6803F40013002B21D00F4BDA6841
:103B5C000E49BB691343CB6021E000BF000032105B
:103B6C000000311000002210000021100000121083
:103B7C00000011100010024000000140000801403C
:103B8C00000C0140001001400014014000040140F1
:103B9C000B4BDA68BB69DB4309491340CB607B6A8A
:103BAC0001337B623B681A687B6A22FA03F3002BB1
:103BBC007FF48EAE00BF00BF2C37BD4680BC704773
:103BCC000004014080B485B000AF78600B467B8068
:103BDC007B689A687B881340002B02D00123FB730F
:103BEC0001E00023FB73FB7B18461437BD4680BCF9
:103BFC00704780B483B000AF78600B467B8013466F
:103C0C007B707B78002B03D07A887B681A6103E089
:103C1C007B881A047B681A6100BF0C37BD4680BCD8
:103C2C007047000080B582B000AF0346FB80084BA4
:103C3C005A69FB881340002B06D0054AFB88536158
:103C4C00FB881846FEF71EFA00BF0837BD4680BD3C
:103C5C000004014080B586B000AF78607B68002B13
:103C6C0001D1012372E27B681B6803F00103002B76
:103C7C0000F08780924B5B6803F00C03042B0CD094
:103C8C008F4B5B6803F00C03082B12D18C4B5B68D9
:103C9C0003F48033B3F5803F0BD1894B1B6803F4DD
:103CAC000033002B6CD07B685B68002B68D1012340
:103CBC004CE27B685B68B3F5803F06D1804B1B6898
:103CCC007F4A43F4803313602EE07B685B68002BE3
:103CDC000CD17B4B1B687A4A23F480331360784BEE
:103CEC001B68774A23F4802313601DE07B685B68B4
:103CFC00B3F5A02F0CD1724B1B68714A43F480238F
:103D0C0013606F4B1B686E4A43F4803313600BE0F7
:103D1C006B4B1B686A4A23F480331360684B1B6837
:103D2C00674A23F4802313607B685B68002B13D0F5
:103D3C00FEF71EFE386108E0FEF71AFE02463B69EC
:103D4C00D31A642B01D9032300E25D4B1B6803F4E7
:103D5C000033002BF0D014E0FEF70AFE386108E0C7
:103D6C00FEF706FE02463B69D31A642B01D90323E6
:103D7C00ECE1534B1B6803F40033002BF0D100E053
:103D8C0000BF7B681B6803F00203002B63D04C4B15
:103D9C005B6803F00C03002B0BD0494B5B6803F002
:103DAC000C03082B1CD1464B5B6803F48033002BAF
:103DBC0016D1434B1B6803F00203002B05D07B6824
:103DCC001B69012B01D00123C0E13D4B1B6823F083
:103DDC00F8027B685B69DB00394913430B603AE0FE
:103DEC007B681B69002B20D0364B01221A60FEF732
:103DFC00BFFD386108E0FEF7BBFD02463B69D31AF4
:103E0C00022B01D90323A1E12D4B1B6803F0020304
:103E1C00002BF0D02A4B1B6823F0F8027B685B69FF
:103E2C00DB00274913430B6015E0264B00221A6078
:103E3C00FEF79EFD386108E0FEF79AFD02463B69ED
:103E4C00D31A022B01D9032380E11D4B1B6803F00D
:103E5C000203002BF0D17B681B6803F00803002BD6
:103E6C003AD07B689B69002B19D0174B01221A6042
:103E7C00FEF77EFD386108E0FEF77AFD02463B69ED
:103E8C00D31A022B01D9032360E10D4B5B6A03F0BB
:103E9C000203002BF0D0012000F0D8FA1CE00A4BF2
:103EAC0000221A60FEF764FD38610FE0FEF760FD3A
:103EBC0002463B69D31A022B08D9032346E100BF03
:103ECC00001002400000424280044242924B5B6A66
:103EDC0003F00203002BE9D17B681B6803F0040399
:103EEC00002B00F0A6800023FB758B4BDB6903F0E5
:103EFC008053002B0DD1884BDB69874A43F08053EC
:103F0C00D361854BDB6903F08053BB60BB68012335
:103F1C00FB75824B1B6803F48073002B18D17F4B0D
:103F2C001B687E4A43F480731360FEF721FD3861F1
:103F3C0008E0FEF71DFD02463B69D31A642B01D93C
:103F4C00032303E1754B1B6803F48073002BF0D043
:103F5C007B68DB68012B06D16F4B1B6A6E4A43F002
:103F6C00010313622DE07B68DB68002B0CD16A4BDC
:103F7C001B6A694A23F001031362674B1B6A664A8A
:103F8C0023F0040313621CE07B68DB68052B0CD167
:103F9C00614B1B6A604A43F0040313625E4B1B6A5D
:103FAC005D4A43F0010313620BE05B4B1B6A5A4AF8
:103FBC0023F001031362584B1B6A574A23F0040386
:103FCC0013627B68DB68002B15D0FEF7D1FC3861DF
:103FDC000AE0FEF7CDFC02463B69D31A41F2883267
:103FEC00934201D90323B1E04B4B1B6A03F002034C
:103FFC00002BEED014E0FEF7BBFC38610AE0FEF7B4
:10400C00B7FC02463B69D31A41F28832934201D97C
:10401C0003239BE0404B1B6A03F00203002BEED101
:10402C00FB7D012B05D13C4BDB693B4A23F08053D4
:10403C00D3617B68DB69002B00F08780364B5B68B3
:10404C0003F00C03082B61D07B68DB69022B46D193
:10405C00334B00221A60FEF78BFC386108E0FEF748
:10406C0087FC02463B69D31A022B01D903236DE06E
:10407C00294B1B6803F00073002BF0D17B681B6A83
:10408C00B3F5803F08D1244B5B6823F400327B6886
:10409C009B68214913434B601F4B5B6823F47412DC
:1040AC007B68196A7B685B6A0B431B4913434B6043
:1040BC001B4B01221A60FEF75BFC386108E0FEF72F
:1040CC0057FC02463B69D31A022B01D903233DE06E
:1040DC00114B1B6803F00073002BF0D035E0104B34
:1040EC0000221A60FEF744FC386108E0FEF740FC41
:1040FC0002463B69D31A022B01D9032326E0064B57
:10410C001B6803F00073002BF0D11EE07B68DB69A9
:10411C00012B07D1012319E0001002400070004070
:10412C00600042420B4B5B68FB60FB6803F480321F
:10413C007B681B6A9A4206D1FB6803F470127B6899
:10414C005B6A9A4201D0012300E00023184618371D
:10415C00BD4680BD0010024080B584B000AF7860D1
:10416C0039607B68002B01D10123D0E06A4B1B68BE
:10417C0003F007033A689A4210D9674B1B6823F087
:10418C00070265493B6813430B60634B1B6803F0E4
:10419C0007033A689A4201D00123B8E07B681B6898
:1041AC0003F00203002B20D07B681B6803F0040390
:1041BC00002B05D0594B5B68584A43F4E0635360BD
:1041CC007B681B6803F00803002B05D0534B5B681E
:1041DC00524A43F460535360504B5B6823F0F00237
:1041EC007B689B684D4913434B607B681B6803F0ED
:1041FC000103002B40D07B685B68012B07D1474B38
:10420C001B6803F40033002B15D101237FE07B687E
:10421C005B68022B07D1414B1B6803F00073002B2A
:10422C0009D1012373E03D4B1B6803F00203002B03
:10423C0001D101236BE0394B5B6823F003027B68EF
:10424C005B68364913434B60FEF792FBF8600AE05B
:10425C00FEF78EFB0246FB68D31A41F2883293427A
:10426C0001D9032353E02D4B5B6803F00C027B68F0
:10427C005B689B009A42EBD1274B1B6803F007034A
:10428C003A689A4210D2244B1B6823F00702224949
:10429C003B6813430B60204B1B6803F007033A6821
:1042AC009A4201D0012332E07B681B6803F00403BF
:1042BC00002B08D0194B5B6823F4E0627B68DB6849
:1042CC00164913434B607B681B6803F00803002BF3
:1042DC0009D0124B5B6823F460527B681B69DB00CE
:1042EC000E4913434B6000F021F802460B4B5B6800
:1042FC001B0903F00F030A49CB5C22FA03F3094AAA
:10430C001360094B1B681846FEF7F0FA0023184699
:10431C001037BD4680BD00BF002002400010024097
:10432C00706B0008080000200C00002090B48AB0CC
:10433C0000AF294B3C1D0FCB84E80F0040F201234A
:10434C003B800023FB610023BB6100237B620023C5
:10435C007B6100233B62214B5B68FB61FB6903F0D3
:10436C000C03042B02D0082B03D02BE01C4B3B621C
:10437C002BE0FB699B0C03F00F0328333B4413F831
:10438C00243C7B61FB6903F48033002B12D0134B6C
:10439C005B685B0C03F0010328333B4413F8283CA7
:1043AC00BB617B690E4A03FB02F2BB69B2FBF3F300
:1043BC007B6204E07B690B4A02FB03F37B627B6A42
:1043CC003B6202E0064B3B6200BF3B6A1846283753
:1043DC00BD4690BC704700BFE06A00080010024068
:1043EC0000127A0000093D0080B400AF024B1B683C
:1043FC001846BD4680BC70470800002080B500AF51
:10440C00FFF7F2FF0246054B5B681B0A03F007033C
:10441C000349CB5C22FA03F3184680BD001002401E
:10442C00806B000880B500AFFFF7DEFF0246054B3E
:10443C005B68DB0A03F007030349CB5C22FA03F346
:10444C00184680BD00100240806B000880B485B017
:10445C0000AF78600A4B1B680A4AA2FB03235B0A75
:10446C007A6802FB03F3FB6000BFFB685A1EFA601C
:10447C00002BF9D100BF00BF1437BD4680BC70477C
:10448C0008000020D34D621080B586B000AF786074
:10449C0000233B610023FB607B681B6803F0010376
:1044AC00002B7DD00023FB754F4BDB6903F0805351
:1044BC00002B0DD14C4BDB694B4A43F08053D3613D
:1044CC00494BDB6903F08053BB60BB680123FB7570
:1044DC00464B1B6803F48073002B18D1434B1B68AD
:1044EC00424A43F480731360FEF742FA386108E0E5
:1044FC00FEF73EFA02463B69D31A642B01D903231B
:10450C006DE03A4B1B6803F48073002BF0D0364BF4
:10451C001B6A03F44073FB60FB68002B2ED07B6896
:10452C005B6803F44073FA689A4227D02E4B1B6ADF
:10453C0023F44073FB602E4B01221A602C4B00229B
:10454C001A60294AFB681362FB6803F00103002B15
:10455C0014D0FEF70DFA38610AE0FEF709FA0246AC
:10456C003B69D31A41F28832934201D9032336E0D6
:10457C001D4B1B6A03F00203002BEED01A4B1B6A77
:10458C0023F440727B685B68174913430B62FB7D15
:10459C00012B05D1144BDB69134A23F08053D361F3
:1045AC007B681B6803F00203002B08D00E4B5B6882
:1045BC0023F440427B689B680B4913434B607B6838
:1045CC001B6803F01003002B08D0074B5B6823F427
:1045DC0080027B68DB68044913434B600023184658
:1045EC001837BD4680BD00BF00100240007000406F
:1045FC004004424280B582B000AF78607B68002BEB
:10460C0001D1012341E07B6893F83D30DBB2002BF4
:10461C0006D17B68002283F83C207868FDF7A6FF62
:10462C007B68022283F83D207B681A687B68043320
:10463C001946104600F020FC7B68012283F84620C6
:10464C007B68012283F83E207B68012283F83F209F
:10465C007B68012283F840207B68012283F841208B
:10466C007B68012283F842207B68012283F8432077
:10467C007B68012283F844207B68012283F8452063
:10468C007B68012283F83D20002318460837BD467D
:10469C0080BD000080B485B000AF78607B6893F873
:1046AC003D30DBB2012B01D001233AE07B680222C2
:1046BC0083F83D207B681B68DA687B681B6842F0D6
:1046CC000102DA607B681B68184A93420ED07B6843
:1046DC001B68B3F1804F09D07B681B68144A934266
:1046EC0004D07B681B68134A934211D17B681B680A
:1046FC009B6803F00703FB60FB68062B10D07B68FC
:10470C001B681A687B681B6842F001021A6007E09C
:10471C007B681B681A687B681B6842F001021A6090
:10472C00002318461437BD4680BC7047002C01404E
:10473C00000400400008004080B582B000AF7860F3
:10474C007B68002B01D1012341E07B6893F83D305D
:10475C00DBB2002B06D17B68002283F83C20786802
:10476C00FDF728FF7B68022283F83D207B681A68DE
:10477C007B6804331946104600F07EFB7B680122EF
:10478C0083F846207B68012283F83E207B68012257
:10479C0083F83F207B68012283F840207B6801224C
:1047AC0083F841207B68012283F842207B68012238
:1047BC0083F843207B68012283F844207B68012224
:1047CC0083F845207B68012283F83D20002318469E
:1047DC000837BD4680BD000080B584B000AF78605E
:1047EC0039603B68002B09D17B6893F83E30DBB213
:1047FC00012B14BF01230023DBB222E03B68042B06
:10480C0009D17B6893F83F30DBB2012B14BF012335
:10481C000023DBB215E03B68082B09D17B6893F8C9
:10482C004030DBB2012B14BF01230023DBB208E0C4
:10483C007B6893F84130DBB2012B14BF01230023BA
:10484C00DBB2002B01D001235EE03B68002B04D1CE
:10485C007B68022283F83E2013E03B68042B04D1D2
:10486C007B68022283F83F200BE03B68082B04D1C5
:10487C007B68022283F8402003E07B68022283F8E5
:10488C0041207B681B6801223968184600F074FDD2
:10489C007B681B681E4A934207D17B681B685A6C65
:1048AC007B681B6842F400425A647B681B68184A98
:1048BC0093420ED07B681B68B3F1804F09D07B68A4
:1048CC001B68144A934204D07B681B68124A9342BB
:1048DC0011D17B681B689B6803F00703FB60FB68C6
:1048EC00062B10D07B681B681A687B681B6842F02B
:1048FC0001021A6007E07B681B681A687B681B68FA
:10490C0042F001021A60002318461037BD4680BDE4
:10491C00002C0140000400400008004080B582B02B
:10492C0000AF78607B681B681B6903F00203022BE5
:10493C0022D17B681B68DB6803F00203022B1BD1BE
:10494C007B681B686FF002021A617B6801221A7780
:10495C007B681B689B6903F00303002B03D078680A
:10496C0000F06FFA05E0786800F062FA786800F001
:10497C0071FA7B6800221A777B681B681B6903F04D
:10498C000403042B22D17B681B68DB6803F004034F
:10499C00042B1BD17B681B686FF004021A617B68C7
:1049AC0002221A777B681B689B6903F44073002B07
:1049BC0003D0786800F045FA05E0786800F038FA22
:1049CC00786800F047FA7B6800221A777B681B68CE
:1049DC001B6903F00803082B22D17B681B68DB687A
:1049EC0003F00803082B1BD17B681B686FF00802CF
:1049FC001A617B6804221A777B681B68DB6903F0F9
:104A0C000303002B03D0786800F01BFA05E07868EC
:104A1C0000F00EFA786800F01DFA7B6800221A7715
:104A2C007B681B681B6903F01003102B22D17B6879
:104A3C001B68DB6803F01003102B1BD17B681B6811
:104A4C006FF010021A617B6808221A777B681B686A
:104A5C00DB6903F44073002B03D0786800F0F1F9A4
:104A6C0005E0786800F0E4F9786800F0F3F97B6809
:104A7C0000221A777B681B681B6903F00103012B6A
:104A8C000ED17B681B68DB6803F00103012B07D197
:104A9C007B681B686FF001021A617868FDF7AAFB4E
:104AAC007B681B681B6903F08003802B0ED17B682D
:104ABC001B68DB6803F08003802B07D17B681B68C5
:104ACC006FF080021A61786800F0E1FC7B681B686B
:104ADC001B6903F04003402B0ED17B681B68DB681D
:104AEC0003F04003402B07D17B681B686FF040023A
:104AFC001A61786800F0B7F97B681B681B6903F0D2
:104B0C002003202B0ED17B681B68DB6803F020038D
:104B1C00202B07D17B681B686FF020021A61786824
:104B2C0000F0ACFC00BF0837BD4680BD80B584B03A
:104B3C0000AFF860B9607A60FB6893F83C30012BE9
:104B4C0001D10223ACE0FB68012283F83C207B6896
:104B5C000C2B00F29F8001A252F823F09D4B000811
:104B6C00A14C0008A14C0008A14C0008DD4B00082A
:104B7C00A14C0008A14C0008A14C00081F4C0008D7
:104B8C00A14C0008A14C0008A14C00085F4C000887
:104B9C00FB681B68B968184600F0D0F9FB681B6805
:104BAC009A69FB681B6842F008029A61FB681B68F3
:104BBC009A69FB681B6822F004029A61FB681B6807
:104BCC009969BB681A69FB681B680A439A6162E0C1
:104BDC00FB681B68B968184600F016FAFB681B687E
:104BEC009A69FB681B6842F400629A61FB681B6857
:104BFC009A69FB681B6822F480629A61FB681B68E7
:104C0C009969BB681B691A02FB681B680A439A61A5
:104C1C0041E0FB681B68B968184600F05FFAFB6856
:104C2C001B68DA69FB681B6842F00802DA61FB68F2
:104C3C001B68DA69FB681B6822F00402DA61FB6806
:104C4C001B68D969BB681A69FB681B680A43DA617F
:104C5C0021E0FB681B68B968184600F0A9FAFB68EC
:104C6C001B68DA69FB681B6842F40062DA61FB6856
:104C7C001B68DA69FB681B6822F48062DA61FB68E6
:104C8C001B68D969BB681B691A02FB681B680A435D
:104C9C00DA6100E000BFFB68002283F83C200023AF
:104CAC0018461037BD4680BD80B584B000AF786023
:104CBC0039607B6893F83C30012B01D10223B3E0BF
:104CCC007B68012283F83C207B68022283F83D201C
:104CDC007B681B689B68FB60FB6823F07703FB60B9
:104CEC00FB6823F47F43FB607B681B68FA689A605F
:104CFC003B681B68B3F5005F3ED0B3F5005F00F274
:104D0C008780B3F5805F00F08580B3F5805F7FD836
:104D1C00702B1AD0702B7BD8602B50D0602B77D88F
:104D2C00502B3CD0502B73D8402B58D0402B6FD8E5
:104D3C00302B64D0302B6BD8202B60D0202B67D835
:104D4C00002B5CD0102B5AD062E07B6818683B6853
:104D5C0099683B685A683B68DB6800F0EEFA7B6840
:104D6C001B689B68FB60FB6843F07703FB607B6808
:104D7C001B68FA689A604EE07B6818683B68996813
:104D8C003B685A683B68DB6800F0D7FA7B681B68A5
:104D9C009A687B681B6842F480429A603BE07B68AF
:104DAC0018683B6859683B68DB681A4600F04EFA95
:104DBC007B681B685021184600F0A5FA2BE07B6835
:104DCC0018683B6859683B68DB681A4600F06CFA57
:104DDC007B681B686021184600F095FA1BE07B6825
:104DEC0018683B6859683B68DB681A4600F02EFA75
:104DFC007B681B684021184600F085FA0BE07B6845
:104E0C001A683B681B681946104600F07CFA02E0F1
:104E1C0000BF00E000BF7B68012283F83D207B6867
:104E2C00002283F83C20002318461037BD4680BD75
:104E3C0080B483B000AF786000BF0C37BD4680BC37
:104E4C00704780B483B000AF786000BF0C37BD46AC
:104E5C0080BC704780B483B000AF786000BF0C3763
:104E6C00BD4680BC704780B483B000AF786000BF93
:104E7C000C37BD4680BC704780B485B000AF7860FD
:104E8C0039607B681B68FB607B68294A93420BD0B6
:104E9C007B68B3F1804F07D07B68264A934203D0DE
:104EAC007B68254A934208D1FB6823F07003FB60B2
:104EBC003B685B68FA681343FB607B681C4A93424F
:104ECC000BD07B68B3F1804F07D07B68194A9342B3
:104EDC0003D07B68184A934208D1FB6823F44073D3
:104EEC00FB603B68DB68FA681343FB60FB6823F0EC
:104EFC0080023B685B691343FB607B68FA681A604D
:104F0C003B689A687B68DA623B681A687B689A62CD
:104F1C007B68074A934203D13B681A697B681A6322
:104F2C007B6801225A6100BF1437BD4680BC7047B4
:104F3C00002C0140000400400008004080B487B001
:104F4C0000AF786039607B681B6A23F001027B68D4
:104F5C001A627B681B6A7B617B685B683B617B6860
:104F6C009B69FB60FB6823F07003FB60FB6823F01C
:104F7C000303FB603B681B68FA681343FB607B69A7
:104F8C0023F002037B613B689B687A6913437B6166
:104F9C007B681C4A93420CD17B6923F008037B612C
:104FAC003B68DB687A6913437B617B6923F00403FC
:104FBC007B617B68134A934211D13B6923F4807364
:104FCC003B613B6923F400733B613B685B693A6965
:104FDC0013433B613B689B693A6913433B617B68B4
:104FEC003A695A607B68FA689A613B685A687B68D0
:104FFC005A637B687A691A6200BF1C37BD4680BC55
:10500C00704700BF002C014080B487B000AF7860BF
:10501C0039607B681B6A23F010027B681A627B681C
:10502C001B6A7B617B685B683B617B689B69FB608F
:10503C00FB6823F4E043FB60FB6823F44073FB60E4
:10504C003B681B681B02FA681343FB607B6923F007
:10505C0020037B613B689B681B017A6913437B616E
:10506C007B681D4A93420DD17B6923F080037B61E1
:10507C003B68DB681B017A6913437B617B6923F016
:10508C0040037B617B68144A934213D13B6923F440
:10509C0080633B613B6923F400633B613B685B6964
:1050AC009B003A6913433B613B689B699B003A69DF
:1050BC0013433B617B683A695A607B68FA689A6172
:1050CC003B685A687B689A637B687A691A6200BF8E
:1050DC001C37BD4680BC7047002C014080B487B0A3
:1050EC0000AF786039607B681B6A23F480727B6840
:1050FC001A627B681B6A7B617B685B683B617B68BF
:10510C00DB69FB60FB6823F07003FB60FB6823F03A
:10511C000303FB603B681B68FA681343FB607B6905
:10512C0023F400737B613B689B681B027A69134311
:10513C007B617B681D4A93420DD17B6923F400632C
:10514C007B613B68DB681B027A6913437B617B697B
:10515C0023F480637B617B68144A934213D13B69CF
:10516C0023F480533B613B6923F400533B613B6860
:10517C005B691B013A6913433B613B689B691B01EB
:10518C003A6913433B617B683A695A607B68FA68F9
:10519C00DA613B685A687B68DA637B687A691A6201
:1051AC0000BF1C37BD4680BC704700BF002C0140BF
:1051BC0080B487B000AF786039607B681B6A23F4D9
:1051CC0080527B681A627B681B6A3B617B685B68F8
:1051DC007B617B68DB69FB60FB6823F4E043FB606D
:1051EC00FB6823F44073FB603B681B681B02FA6886
:1051FC001343FB603B6923F400533B613B689B68A2
:10520C001B033A6913433B617B680F4A934209D1F4
:10521C007B6923F480437B613B685B699B017A6902
:10522C0013437B617B687A695A607B68FA68DA6140
:10523C003B685A687B681A647B683A691A6200BFDB
:10524C001C37BD4680BC7047002C014080B487B031
:10525C0000AFF860B9607A60FB681B6A7B61FB6821
:10526C001B6A23F00102FB681A62FB689B693B61B5
:10527C003B6923F0F0033B617B681B013A691343E4
:10528C003B617B6923F00A037B617A69BB6813433A
:10529C007B61FB683A699A61FB687A691A6200BFA4
:1052AC001C37BD4680BC704780B487B000AFF86037
:1052BC00B9607A60FB681B6A23F01002FB681A6203
:1052CC00FB689B697B61FB681B6A3B617B6923F410
:1052DC0070437B617B681B037A6913437B613B6979
:1052EC0023F0A0033B61BB681B013A6913433B618C
:1052FC00FB687A699A61FB683A691A6200BF1C37CD
:10530C00BD4680BC704780B485B000AF7860396012
:10531C007B689B68FB60FB6823F07003FB603A685A
:10532C00FB68134343F00703FB607B68FA689A60E1
:10533C0000BF1437BD4680BC704780B487B000AF47
:10534C00F860B9607A603B60FB689B687B617B6945
:10535C0023F47F437B613B681A027B681A43BB686A
:10536C0013437A6913437B61FB687A699A6000BFC7
:10537C001C37BD4680BC704780B487B000AFF86066
:10538C00B9607A60BB6803F01F03012202FA03F3D1
:10539C007B61FB681A6A7B69DB431A40FB681A6203
:1053AC00FB681A6ABB6803F01F03796801FA03F300
:1053BC001A43FB681A6200BF1C37BD4680BC70479D
:1053CC0080B485B000AF786039607B6893F83C306E
:1053DC00012B01D1022346E07B68012283F83C209B
:1053EC007B68022283F83D207B681B685B68FB604E
:1053FC007B681B689B68BB60FB6823F07003FB60D9
:10540C003B681B68FA681343FB607B681B68FA688F
:10541C005A607B681B68164A93420ED07B681B68E7
:10542C00B3F1804F09D07B681B68124A934204D0B9
:10543C007B681B68104A93420CD1BB6823F0800335
:10544C00BB603B685B68BA681343BB607B681B68D6
:10545C00BA689A607B68012283F83D207B68002241
:10546C0083F83C20002318461437BD4680BC704797
:10547C00002C0140000400400008004080B483B0C0
:10548C0000AF786000BF0C37BD4680BC704780B45D
:10549C0083B000AF786000BF0C37BD4680BC70474E
:1054AC0080B582B000AF78607B68002B01D10123FE
:1054BC003FE07B6893F83D30DBB2002B06D17B6874
:1054CC00002283F83C207868FDF792F87B68242250
:1054DC0083F83D207B681B68DA687B681B6822F4C4
:1054EC000052DA60786800F07FFD7B681B681A69EF
:1054FC007B681B6822F490421A617B681B685A69AE
:10550C007B681B6822F02A025A617B681B68DA6888
:10551C007B681B6842F40052DA607B6800221A64D4
:10552C007B68202283F83D207B68202283F83E2074
:10553C00002318460837BD4680BD80B58AB002AF3F
:10554C00F860B9603B601346FB8000237B61FB680D
:10555C0093F83D30DBB2202B7CD1BB68002B02D002
:10556C00FB88002B01D1012375E0FB6893F83C30DC
:10557C00012B01D102236EE0FB68012283F83C2051
:10558C00FB6800221A64FB68212283F83D20FDF79A
:10559C00EFF97861FB68FA889A84FB68FA88DA84F8
:1055AC00FB689B68B3F5805F08D1FB681B69002B17
:1055BC0004D10023FB61BB68BB6103E0BB68FB61EA
:1055CC000023BB61FB68002283F83C202AE03B6887
:1055DC0000937B6900228021F86800F0F1FA034601
:1055EC00002B01D0032336E0FB69002B0BD1BB69E8
:1055FC001B881A46FB681B68C2F308025A60BB6919
:10560C000233BB6107E0FB691A78FB681B685A60C0
:10561C00FB690133FB61FB68DB8C9BB2013B9AB2EB
:10562C00FB68DA84FB68DB8C9BB2002BCFD13B6828
:10563C0000937B6900224021F86800F0C1FA034610
:10564C00002B01D0032306E0FB68202283F83D20C9
:10565C00002300E0022318462037BD4680BD80B5EC
:10566C0084B000AFF860B9601346FB80FB6893F818
:10567C003E30DBB2202B1DD1BB68002B02D0FB8847
:10568C00002B01D1012316E0FB6893F83C30012B71
:10569C0001D102230FE0FB68012283F83C20FB6858
:1056AC0000221A63FB881A46B968F86800F0D2FA2F
:1056BC00034600E0022318461037BD4680BD0000AB
:1056CC0080B58AB000AF78607B681B681B687B6212
:1056DC007B681B68DB683B627B681B685B69FB61F2
:1056EC000023BB6100237B617B6A03F00F03BB616A
:1056FC00BB69002B0DD17B6A03F02003002B08D073
:10570C003B6A03F02003002B03D0786800F0C2FB47
:10571C007BE1BB69002B00F0B180FB6903F0010356
:10572C00002B05D13B6A03F49073002B00F0A6808C
:10573C007B6A03F00103002B0AD03B6A03F48073ED
:10574C00002B05D07B681B6C43F001027B681A644C
:10575C007B6A03F00403002B0AD0FB6903F00103FE
:10576C00002B05D07B681B6C43F002027B681A642B
:10577C007B6A03F00203002B0AD0FB6903F00103E0
:10578C00002B05D07B681B6C43F004027B681A6409
:10579C007B6A03F00803002B0FD03B6A03F0200355
:1057AC00002B04D1FB6903F00103002B05D07B68AF
:1057BC001B6C43F008027B681A647B681B6C002B23
:1057CC0000F01E817B6A03F02003002B07D03B6A9C
:1057DC0003F02003002B02D0786800F05BFB7B68A1
:1057EC001B685B6903F04003002B14BF01230023EB
:1057FC00DBB27B617B681B6C03F00803002B02D1CE
:10580C007B69002B31D0786800F09DFA7B681B68AF
:10581C005B6903F04003002B23D07B681B685A693B
:10582C007B681B6822F040025A617B689B6B002BE3
:10583C0013D07B689B6B764A5A637B689B6B1846CC
:10584C00FDF792FE0346002B16D07B689B6B5B6BBF
:10585C007A68926B104698470EE0786800F0ECF886
:10586C000AE0786800F0E8F806E0786800F0E4F800
:10587C007B6800221A64C3E000BFC1E07B681B6B2D
:10588C00012B40F0A1807B6A03F01003002B00F089
:10589C009B803B6A03F01003002B00F095800023E3
:1058AC00FB607B681B681B68FB607B681B685B6824
:1058BC00FB60FB687B681B685B6903F04003002B93
:1058CC004ED07B689B6B1B685B683B823B8A002BD2
:1058DC0000F098807B689B8D3A8A9A4280F0928087
:1058EC007B683A8ADA857B689B6B9B69202B2BD073
:1058FC007B681B68DA687B681B6822F48072DA604C
:10590C007B681B685A697B681B6822F001025A612C
:10591C007B681B685A697B681B6822F040025A61DD
:10592C007B68202283F83E207B6800221A637B6808
:10593C001B68DA687B681B6822F01002DA607B68EF
:10594C009B6B1846FDF7D5FD7B689A8D7B68DB8DCC
:10595C009BB2D31A9BB21946786800F076F851E0E6
:10596C007B689A8D7B68DB8D9BB2D31A7B827B68BC
:10597C00DB8D9BB2002B47D07B8A002B44D07B68FD
:10598C001B68DA687B681B6822F49072DA607B68AB
:10599C001B685A697B681B6822F001025A617B689C
:1059AC00202283F83E207B6800221A637B681B68E8
:1059BC00DA687B681B6822F01002DA607B8A194671
:1059CC00786800F042F81FE07B6A03F08003002B3C
:1059DC0008D03B6A03F08003002B03D0786800F0FA
:1059EC00F2F912E07B6A03F04003002B0DD03B6A06
:1059FC0003F04003002B08D0786800F033FA04E081
:105A0C0000BF02E000BF00E000BF2837BD4680BDEC
:105A1C00AB5D000880B483B000AF786000BF0C377A
:105A2C00BD4680BC704780B483B000AF786000BFC7
:105A3C000C37BD4680BC704780B483B000AF786033
:105A4C0000BF0C37BD4680BC704780B483B000AF3C
:105A5C0078600B467B8000BF0C37BD4680BC70471E
:105A6C0080B584B000AF78607B685B6AFB607B6854
:105A7C001B681B6803F02003002B2AD1FB68002253
:105A8C00DA85FB681B68DA68FB681B6822F4807295
:105A9C00DA60FB681B685A69FB681B6822F001021C
:105AAC005A61FB681B685A69FB681B6822F040024C
:105ABC005A61FB68202283F83E20FB681B6B012B8C
:105ACC0007D1FB681B68DA68FB681B6822F01002C0
